:100000000C94DB1B0C940C1C0C940C1C0C940C1C02
:100010000C940C1C0C940C1C0C940C1C0C940C1CC0
:100020000C940C1C0C940C1C0C940C1C0C940C1CB0
:100030000C940C1C0C940C1C0C940C1C0C940C1CA0
:100040000C940C1C0C9434CA0C940C1C0C940C1CBA
:100050000C940C1C0C940C1C0C948C960C941F96F9
:100060000C940C1C0C94C58D0C940C1C0C940C1C46
:100070000C940C1C0C940C1C0C940C1C0C940C1C60
:100080000C940C1C0C940C1C0C940C1C0C940C1C50
:100090000C940C1C0C940C1C0C940C1C0C94A3C401
:1000A0000C940C1C0C940C1C0C940C1C0C940C1C30
:1000B0000C940C1C0C940C1C0C940C1C0C940C1C20
:1000C0000C940C1C0C940C1C0C940C1C0C940C1C10
:1000D0000C940C1C0C940C1C0C940C1C0C940C1C00
:1000E0000C940C1C4D365036543658365C366036FF
:1000F0005637643668366D365637723678367C3603
:1001000080368436883656378C3690369636563753
:100110009C36B236B436C236C436C636C836CE364B
:10012000D036D236D436DE36E036E236E436EA363B
:10013000EC365637563756375637563756375637C2
:100140005637563756375637563756375637563747
:100150005637563756375637563756375637563737
:100160005637563756375637563756375637563727
:100170005637563756375637563756375637563717
:100180005637563756375637563756375637563707
:1001900056375637563756375637563756375637F7
:1001A000563756375637563756375637F636173787
:1001B000C84FC84FD64FE44F00500E501C502A5025
:1001C0003B50F24F9D94A0948F9493949794D7941E
:1001D000A494A894AE94B294B694BC94C094C494DD
:1001E000D794CA94CE94D2944E95539558956295CF
:1001F0006C95E59576957E95869590959A95A495BE
:10020000B395BD95E595C795D195DB95084AD73B44
:100210003BCE016E84BCBFFDC12F3D6C74319ABDD5
:1002200056833DDA3D00C77F11BED9E4BB4C3E91F9
:100230006BAAAABE000000803F05A84CCDB2D44EE8
:10024000B93836A9020C50B9918688083CA6AAAAEA
:100250002ABE000000803F004E414E494E4954598D
:10026000494E46CDCCCC3D0AD7233C17B7D1387781
:10027000CC2B329595E6241FB14F0A000020410097
:1002800000C84200401C4620BCBE4CCA1B0E5AAEE1
:10029000C59D7443617264206572726F723A004E3C
:1002A0006F74205344207072696E74696E67002FFA
:1002B000005344207072696E74696E6720627974AD
:1002C0006520002E0044656C6574696F6E20666160
:1002D000696C65642C2046696C653A200046696C3F
:1002E000652064656C657465643A002E006F706506
:1002F0006E206661696C65642C2046696C653A20E5
:1003000000504944204175746F74756E65206669AC
:100310006E69736865642120507574207468652067
:100320004B702C204B6920616E64204B6420636FFE
:100330006E7374616E747320696E746F20436F6E98
:1003400066696775726174696F6E2E680050494402
:10035000204175746F74756E65206661696C6564A3
:10036000212074696D656F75740020403A006F6BD1
:1003700020543A006F6B20423A00504944204175A6
:10038000746F74756E65206661696C6564212054B4
:10039000656D706572617475726520746F6F206829
:1003A00069676800204B643A2000204B693A2000BE
:1003B000204B703A200020436C61736963205049E0
:1003C0004420002054753A2000204B753A2000202C
:1003D0006D61783A2000206D696E3A200020643A01
:1003E000200020626961733A200050494420417521
:1003F000746F74756E652073746172740050494433
:10040000204175746F74756E65206661696C6564F2
:100410002E20426164206578747275646572206E66
:10042000756D6265722E000D0A003F00566572738D
:10043000696F6E20444556000D0A00556E6B6E6F55
:10044000776E20636F6D6D616E643A200054455382
:10045000540D0A002200556E6B6E6F776E20636F2D
:100460006D6D616E643A202200456C656374726F35
:100470006E6963735F746573740041637469766554
:100480002045787472756465723A2000496E766111
:100490006C6964206578747275646572005400201C
:1004A000423A300020423A31006F6B20523A00202D
:1004B000643A0020693A0020703A006F6B002063B4
:1004C0003A0020643A0020693A0020703A006F6BCD
:1004D000002200556E6B6E6F776E20636F6D6D61DD
:1004E0006E643A2022006F70656E0054524947478F
:1004F00045524544007A5F6D61783A20006F70651F
:100500006E0054524947474552454400795F6D613A
:10051000783A20006F70656E005452494747455243
:10052000454400785F6D696E3A20005265706F72C5
:1005300074696E6720656E6473746F702073746184
:10054000747573005A3A00593A0020436F756E74FF
:1005500020583A2000453A005A3A00593A00583A91
:10056000004649524D574152455F4E414D453A4D27
:1005700061726C696E20556C74696D616B65723265
:100580003B20537072696E7465722F6772626C20C3
:100590006D617368757020666F722067656E3620B6
:1005A0004649524D574152455F55524C3A68747412
:1005B000703A2F2F6769746875622E636F6D2F55BF
:1005C0006C74696D616B65722050524F544F434F8C
:1005D0004C5F56455253494F4E3A312E30204D41D3
:1005E0004348494E455F545950453A556C74696DBE
:1005F000616B65722045585452554445525F434FD4
:10060000554E543A310A0020423A0020453A0054EF
:100610003A003F0020573A0020453A00543A002063
:1006200042403A0020403A00202F0020423A002069
:100630002F006F6B20543A002569206D696E2C20C5
:1006400025692073656300456E642066696C6520CA
:100650006C69737400426567696E2066696C652019
:100660006C697374004350450041425300504C4143
:10067000002020506C616E6E657242756666657210
:1006800042797465733A20002046726565204D6595
:100690006D6F72793A20004D617220313020323016
:1006A000313800436F6D70696C65643A200056659F
:1006B0007273696F6E2044455600207C204175742A
:1006C000686F723A20004D61722031302032303133
:1006D000382032333A34333A323900204C61737463
:1006E00020557064617465643A2000312E302E30DC
:1006F000004D61726C696E200020536F66747761E3
:100700007265205265736574002057617463686474
:100710006F67205265736574002042726F776E2098
:100720006F75742052657365740020457874657226
:100730006E616C20526573657400506F77657255F9
:1007400070007374617274004D3834205820592041
:100750005A2045006563686F3A00256920686F7507
:100760007273202569206D696E7574657300446F1E
:100770006E65207072696E74696E672066696C655B
:10078000005072696E7465722073746F7070656466
:100790002064756520746F206572726F72732E20ED
:1007A00046697820746865206572726F7220616E88
:1007B0006420757365204D39393920746F20726556
:1007C00073746172742E202854656D706572617443
:1007D0007572652069732072657365742E20536588
:1007E0007420697420616674657220726573746127
:1007F0007274696E6729006F6B004E6F204C696ED2
:1008000065204E756D626572207769746820636833
:1008100065636B73756D2C204C617374204C696E2D
:10082000653A20004E6F20436865636B73756D20D9
:1008300077697468206C696E65206E756D6265728B
:100840002C204C617374204C696E653A20006368FB
:1008500065636B73756D206D69736D617463682C6E
:10086000204C617374204C696E653A20004C696EAF
:1008700065204E756D626572206973206E6F7420FD
:100880004C617374204C696E65204E756D626572A3
:100890002B312C204C617374204C696E653A20001A
:1008A0004572726F723A004D313130006572726F6D
:1008B000722077726974696E6720746F2066696C44
:1008C0006500205A3A0020593A0020583A00656ED7
:1008D0006473746F7073206869743A20006563688C
:1008E0006F3A00446F6E6520736176696E672066AB
:1008F000696C652E006F6B004D32390020736563A3
:1009000000206D696E0020686F75720020686F7539
:10091000727300627574746F6E20746F20636F6EF3
:1009200074696E756500556C74696D616B657221D3
:1009300020507265737320746865007374617274FB
:100940007570206F6620796F75720057656C636FE4
:100950006D6520746F207468652066697273740019
:10096000312F323100434F4E54494E5545004731E7
:1009700020462569205A256920582569205925696E
:1009800000473238205A30205830205930006275E4
:10099000696C64706C6174652E006F662061646AB6
:1009A000757374696E6720796F7572007468726F01
:1009B000756768207468652070726F636573730073
:1009C000492077696C6C20677569646520796F755B
:1009D0000043414E43454C00434F4E54494E55450C
:1009E00000473120462569205A25690047323820C2
:1009F0005A3000612066697273742072756E2077B8
:100A0000697A6172642E0077616C6B20796F752052
:100A10007468726F756768006669727374207374A6
:100A2000617274757020492077696C6C004265634F
:100A300061757365207468697320697320746865D3
:100A400000322F323100434F4E54494E5545004736
:100A50003120462569205A256920582569205925C5
:100A6000690047323820583020593000676F696E6E
:100A70006720746F20646F2074686174206E6F77D4
:100A80002E0061646A7573746D656E74732C2077C3
:100A90006520617265007765206E65656420746FFE
:100AA00020646F20736F6D650041667465722074F9
:100AB00072616E73706F72746174696F6E00332F40
:100AC000323100434F4E54494E5545004731204680
:100AD0002569205A3000473120462569205825696C
:100AE0002059256900473120462569205A3500667E
:100AF000726F6D20746865206275696C64706C61DA
:100B000074652E0061206D696C6C696D6574657229
:100B1000206177617900756E74696C207468652056
:100B20006E6F7A7A6C6520697300526F74617465B8
:100B30002074686520627574746F6E00342F3231D2
:100B400000434F4E54494E554500434F4E54494E75
:100B5000554500473120462569205A30004731204D
:100B600046256920582569205925690047312046C6
:100B70002569205A350066726F6D207468652062A1
:100B800075696C64706C6174652E006973206120F6
:100B90006D696C6C696D657465722061776179004F
:100BA00073637265772074696C6C20746865206E5D
:100BB0006F7A7A6C65005475726E206C656674206D
:100BC0006275696C64706C61746500352F32310038
:100BD000434F4E54494E55450066726F6D20746800
:100BE00065206275696C64706C6174652E00697350
:100BF0002061206D696C6C696D6574657220617728
:100C000061790073637265772074696C6C20746815
:100C100065206E6F7A7A6C65005475726E20726909
:100C2000676874206275696C64706C617465003605
:100C30002F323100434F4E54494E55450047312025
:100C4000462569205A30004731204625692058251D
:100C5000692059256900473120462569205A350009
:100C6000746865206275696C64706C617465206C71
:100C70006576656C2E00706170657220746F2066F9
:100C8000696E652D74756E65006E6F77207573657E
:100C90002061207368656574206F66005265706519
:100CA0006174207468697320737465702C20627598
:100CB0007400372F323100434F4E54494E55450092
:100CC00062697420726573697374616E63652E0066
:100CD000756E74696C20796F75206665656C20612E
:100CE000006275696C64706C61746520616E64206B
:100CF0006E6F7A7A6C6500536C6964652061207050
:100D000061706572206265747765656E00382F3298
:100D10003100434F4E54494E554500434F4E5449C0
:100D20004E554500746865206C65667420636F726B
:100D30006E65722E2E2E0052657065617420746887
:100D4000697320666F7200392F323100434F4E5461
:100D5000494E554500473238205A300074686520A6
:100D6000726967687420636F726E65722E2E2E0032
:100D7000526570656174207468697320666F7200D3
:100D800031302F323100434F4E54494E55450044C7
:100D90004F4E45004D383400473120463132303017
:100DA0003020583131302059313000746F20696E55
:100DB00073657274206D6174657269616C2E007464
:100DC0006865206E6578742073746570206973009F
:100DD000746865206275696C64706C617465004E3E
:100DE0006F772074686174207765206C6576656C18
:100DF00065640031312F323100434F4E54494E5516
:100E00004500556C74696D616B6572322E00696EB8
:100E10007365727420696E2074686973006D617403
:100E2000657269616C20796F752077696C6C004E12
:100E30006578742C2073656C656374207468650034
:100E400031322F32310052454144590053656C65AF
:100E5000637420746865206D6174657269616C00EB
:100E6000206173206D6174657269616C2C0031338F
:100E70002F3231004D4154455249414C0069732095
:100E8000746869732072696768743F00596F7520D0
:100E9000686176652063686F73656E0031342F3248
:100EA00031004E4F00594553006974206973207515
:100EB00073696E672E006F66206D6174657269617B
:100EC0006C006B6E6F77732077686174206B696E4E
:100ED00064004E6F7720796F757220556C74696D60
:100EE000616B6572320031352F323100434F4E5401
:100EF000494E5545006D6174657269616C206C6F77
:100F00006164696E67007072696E746865616420FF
:100F100068656174696E6720666F7200506C656108
:100F2000736520776169742C0031362F323100618E
:100F3000626F766520746865206172726F772E002B
:100F4000796F757220556C74696D616B6572322CA6
:100F50000066726F6D207468652072656172206F23
:100F60006600496E73657274206E6577206D6174DA
:100F7000657269616C0031372F323100434F4E5436
:100F8000494E5545005072696E74696E67207769E5
:100F90007468205553422E2E2E00756C74696D6155
:100FA0006B65722E636F6D2F4552303700476F208F
:100FB000746F3A0058206F722059207377697463F8
:100FC0006820737475636B00756C74696D616B6513
:100FD000722E636F6D2F4552303700476F20746F4C
:100FE0003A0058206F722059207377697463682023
:100FF00062726F6B656E00756C74696D616B6572A2
:101000002E636F6D2F4552303600476F20746F3A54
:10101000005A2073776974636820737475636B007A
:10102000756C74696D616B65722E636F6D2F4552BF
:10103000303500476F20746F3A005A207377697417
:1010400063682062726F6B656E00756C74696D61A8
:101050006B65722E636F6D2F4552303400476F20E1
:10106000746F3A00536166657479206369726375C1
:10107000697400756C74696D616B65722E636F6D58
:101080002F4552303300476F20746F3A0048656136
:10109000746572206572726F7200756C74696D612F
:1010A0006B65722E636F6D2F4552303200476F2093
:1010B000746F3A0054656D702073656E736F7220A3
:1010C00042454400756C74696D616B65722E636F87
:1010D0006D2F4552303100476F20746F3A005465D0
:1010E0006D702073656E736F72004552524F5220BF
:1010F0002D2053544F50504544004D41494E5445C6
:101100004E414E4345004D4154455249414C0050DB
:1011100052494E540043414E43454C00507265764F
:101120003A20005072696E7465722068616C746553
:10113000642E206B696C6C28292063616C6C65647B
:1011400021005072696E7465722073746F707065DF
:10115000642064756520746F206572726F72732EDF
:101160002046697820746865206572726F7220610C
:101170006E6420757365204D39393920746F207283
:101180006573746172742E202854656D7065726188
:10119000747572652069732072657365742E2053AF
:1011A0006574206974206166746572207265737459
:1011B000617274696E6729004D32313820496E764C
:1011C000616C696420657874727564657220004D85
:1011D00031303920496E76616C69642065787472AB
:1011E0007564657220004D31303520496E76616C32
:1011F000696420657874727564657220004D3130C1
:101200003420496E76616C69642065787472756407
:1012100065722000456E6473746F70207374696C1E
:101220006C207072657373656420616674657220EA
:101230006261636B696E67206F66662E20456E641F
:1012400073746F7020737475636B3F000000E0402F
:101250000000E0400000E040456E6473746F702051
:101260006E6F742070726573736564206166746557
:101270007220686F6D696E6720646F776E2E2045EF
:101280006E6473746F702062726F6B656E3F0045A1
:101290006E6473746F70206E6F74207072657373F8
:1012A000656420616674657220686F6D696E672081
:1012B000646F776E2E20456E6473746F7020627257
:1012C0006F6B656E3F00FF010100006643008060A8
:1012D000430000614300002110422063308440A598
:1012E00050C660E770088129914AA16BB18CC1ADED
:1012F000D1CEE1EFF13112100273325222B5529485
:1013000042F772D662399318837BB35AA3BDD39C3C
:10131000C3FFF3DEE36224433420040114E664C710
:1013200074A44485546AA54BB528850995EEE5CF8C
:10133000F5ACC58DD55336722611163006D776F624
:10134000669556B4465BB77AA719973887DFF7FEDC
:10135000E79DD7BCC7C448E5588668A778400861B0
:101360001802282338CCC9EDD98EE9AFF94889692C
:10137000990AA92BB9F55AD44AB77A966A711A50C4
:101380000A333A122AFDDBDCCBBFFB9EEB799B587C
:101390008B3BBB1AABA66C877CE44CC55C222C0350
:1013A0003C600C411CAEED8FFDECCDCDDD2AAD0BCC
:1013B000BD688D499D977EB66ED55EF44E133E3264
:1013C0002E511E700E9FFFBEEFDDDFFCCF1BBF3A1C
:1013D000AF599F788F8891A981CAB1EBA10CD12D0B
:1013E000C14EF16FE18010A100C230E3200450250E
:1013F0004046706760B9839893FBA3DAB33DC31C82
:10140000D37FE35EF3B1029012F322D2323542145D
:101410005277625672EAB5CBA5A89589856EF54FCD
:10142000E52CD50DC5E234C324A0148104667447AD
:101430006424540544DBA7FAB79987B8975FE77E21
:10144000F71DC73CD7D326F2369106B016576676FD
:1014500076154634564CD96DC90EF92FE9C899E96D
:10146000898AB9ABA94458654806782768C018E14D
:10147000088238A3287DCB5CDB3FEB1EFBF98BD8C1
:101480009BBBAB9ABB754A545A376A167AF10AD09D
:101490001AB32A923A2EFD0FED6CDD4DCDAABD8B0D
:1014A000ADE89DC98D267C076C645C454CA23C83ED
:1014B0002CE01CC10C1FEF3EFF5DCF7CDF9BAFBA61
:1014C000BFD98FF89F176E367E554E745E932EB23D
:1014D0003ED10EF01E4C6F6164696E67206D6174C1
:1014E000657269616C2E2E2E0031382F3231006604
:1014F000726F6D206E6F7A7A6C652E2E2E006D6184
:1015000074657269616C20657869747300507573D5
:101510006820627574746F6E207768656E0031396B
:101520002F323100434F4E54494E5545006D616B8B
:10153000652061203344205072696E742100492770
:101540006D207265616479206C6574277300323098
:101550002F32310041524520594F552052454144C8
:10156000593F00746F207072696E74206974210095
:10157000616E642070726573732074686520627593
:1015800074746F6E006F6E207468652053442D6311
:101590006172640053656C656374206120707269C8
:1015A0006E742066696C650032312F3231004C4513
:1015B000542753205052494E540052656164696E5D
:1015C0006720636172642E2E2E0032312F3231007B
:1015D000796F757220556C74696D616B6572322E0E
:1015E0002E2E00746861742063616D6520776974C4
:1015F0006800506C6561736520696E736572742054
:1016000053442D636172640032312F3231005245F0
:101610005455524E00414456414E434544004255B4
:10162000494C442D7C504C415445003F3F3F0046BF
:101630006163746F72792072657365740052756EA0
:1016400074696D6520737461747300566572736993
:101650006F6E004D6F74696F6E2073657474696E80
:101660006773005365742066616E207370656564EE
:10167000004D6F7665206D6174657269616C00491B
:101680006E73657274206D6174657269616C00526D
:1016900061697365206275696C64706C6174650062
:1016A0004C6F776572206275696C64706C617465EB
:1016B00000486F6D652068656164004865617475F8
:1016C00070206275696C64706C6174650048656156
:1016D000747570206E6F7A7A6C65004C4544207387
:1016E000657474696E6773003C2052455455524EC0
:1016F0000056657273696F6E20444556002500439D
:1017000000432F004300432F002500473238205864
:101710003020593000250046616E20737065656485
:101720000047312046256920582569205925690040
:101730004732382058205900473120462569205A21
:10174000343000473238205A004D383400473238A0
:10175000205A004D3834004732382058205900476D
:101760003238205A00414456414E4345440043001C
:10177000432F00436C69636B20746F20726574752E
:10178000726E004E6F7A7A6C652074656D7065724A
:1017900061747572653A004300432F00436C6963BE
:1017A0006B20746F2072657475726E00526F746175
:1017B000746520746F2065787472756465004E6F6F
:1017C0007A7A6C652074656D706572617475726586
:1017D0003A004300432F00436C69636B20746F2011
:1017E00072657475726E004275696C64706C6174B8
:1017F000652074656D702E3A0056657273696F6E60
:1018000020444556004D617220313020323031384D
:101810002032333A34333A32390052657475726E7D
:10182000006D00204D61743A003A005072696E7488
:10183000696E673A003A004D616368696E65206FB2
:101840006E20666F723A0052657475726E00746F26
:101850002064656661756C743F0052657365742021
:1018600065766572797468696E67004E4F005945F8
:1018700053003F3F3F0043757272656E7420450010
:1018800043757272656E74205A0043757272656E8C
:101890007420582F59004D6178207370656564205D
:1018A0005A004D61782073706565642059004D6160
:1018B00078207370656564205800582F59204A6558
:1018C000726B00416363656C65726174696F6E0071
:1018D0003C2052455455524E006D41006D41006D03
:1018E00041006D6D2F736563006D6D2F736563002F
:1018F0006D6D2F736563006D6D2F736563006D6D86
:101900002F7365635E32006D410043757272656EC0
:10191000742045006D410043757272656E74205AE3
:10192000006D410043757272656E7420582F590026
:101930006D6D2F736563004D61782073706565640C
:10194000205A006D6D2F736563004D6178207370B0
:101950006565642059006D6D2F736563004D617876
:101960002073706565642058006D6D2F736563008A
:10197000582F59204A65726B0030306D6D2F73659A
:10198000635E3200416363656C65726174696F6E9A
:10199000004D4F54494F4E002500427269676874EC
:1019A0006E6573730025004D6174657269616C200A
:1019B000666C6F7700250046616E20737065656404
:1019C0000025005072696E74207370656564005460
:1019D000554E450052657472616374206C656E6784
:1019E0007468003F3F3F00526574726163742073F6
:1019F00070656564003C2052455455524E006D6D33
:101A00002F736563006D6D006D6D2F7365630052FC
:101A1000657472616374207370656564006D6D0038
:101A200052657472616374206C656E6774680052ED
:101A3000455452414354494F4E004D3630312058A1
:101A400035205935205A2569204C25690020746FAE
:101A50006F206C6F6E6720657874727573696F6E36
:101A60002070726576656E7465640020636F6C64C7
:101A700020657874727573696F6E20707265766513
:101A80006E746564006563686F3A0043616E6E6FE3
:101A90007420656E746572207375626469723A2091
:101AA00000534420434152440047312046313230F4
:101AB00030302058352059313000473238003B460D
:101AC0004C41564F523A556C746947436F646500F8
:101AD0003B464C41564F523A556C746947436F64CC
:101AE00065004E6F2066696C657320666F756E6465
:101AF00021004F4B004F4B0052656164696E6720B7
:101B0000636172642E2E2E00506C656173652069CE
:101B10006E736572742063617264004E6F2053446B
:101B20002D434152442100507265706172696E67A5
:101B300020746F207072696E743A00486561746930
:101B40006E672075702E2E2E0041424F5254005465
:101B5000554E450054696D65206C65667400546986
:101B60006D65206C65667420756E6B6E6F776E00A8
:101B70004300430048656174696E67206275696C53
:101B800064706C617465004300430048656174696A
:101B90006E67005072696E74696E673A0050415505
:101BA00053450054554E450054554E450043484159
:101BB0004E47457C4D4154455249414C0052455396
:101BC000554D457C5052494E5400756C74696D6199
:101BD0006B65722E636F6D2F4552303800476F2052
:101BE000746F3A0072656164696E672053442D63B7
:101BF00061726421004572726F72207768696C654A
:101C00000052455455524E20544F204D41494E00EC
:101C10006F66207072696E74696E672061726561AB
:101C2000005472696564207072696E74696E672011
:101C30006F7574004552524F523A005245545552F6
:101C40004E20544F204D41494E0066726F6D2074F6
:101C5000686520736C696365722E007365747469BE
:101C60006E6720776974682073657474696E6700A5
:101C70006F76657272696465206D616368696E650F
:101C800000546869732066696C652077696C6C0024
:101C900043414E43454C00434F4E54494E55450039
:101CA0002573207673202573006D617465726961F8
:101CB0006C2E00666F7220612064696666657265CD
:101CC0006E7400546869732066696C6520697320BE
:101CD000637265617465640043414E43454C004343
:101CE0004F4E54494E55450041626F7274207468DE
:101CF00065207072696E743F004E4F005945530065
:101D000043004320005072696E74657220636F6FE8
:101D10006C696E6720646F776E004241434B2054BC
:101D20004F204D454E5500746865207072696E7481
:101D30002E00596F752063616E2072656D6F766538
:101D4000005072696E742066696E6973686564001C
:101D50004241434B20544F204D454E55004C454485
:101D6000204272696768746E65737300526574729D
:101D7000616374696F6E004D6174657269616C2096
:101D8000666C6F770046616E207370656564004213
:101D900075696C64706C6174652074656D702E007B
:101DA00054656D7065726174757265005370656518
:101DB000640041626F7274003C2052455455524E8B
:101DC0000025002500250043004300430043002573
:101DD000004300432F00436C69636B20746F2072D3
:101DE000657475726E004E6F7A7A6C652074656DDD
:101DF00070657261747572653A0025004D61746595
:101E00007269616C20666C6F7700250046616E20F8
:101E10007370656564006D6D004D61746572696114
:101E20006C204469616D6574657200430042756998
:101E30006C64706C6174652054656D702E004D414A
:101E400054455249414C003C2052455455524E0095
:101E500054656D70657261747572653A2000430057
:101E6000430054656D7065726174757265004D4113
:101E700054455249414C003C2052455455524E0065
:101E800052657472616374696F6E3A20006D6D2FD4
:101E900073006D6D20004D4154455249414C005234
:101EA000657472616374206C656E677468003F3F8F
:101EB0003F005265747261637420737065656400DD
:101EC0003C2052455455524E006D6D2F7365630092
:101ED0006D6D006D6D2F7365630052657472616383
:101EE00074207370656564006D6D00526574726175
:101EF0006374206C656E67746800524554524143A8
:101F000054494F4E003C2052455455524E004E65A8
:101F10007720707265736574005052455345545371
:101F20000050500054505520393541004350452B46
:101F3000004E796C6F6E00504300435045004142A3
:101F40005300504C41006C63645F6D61746572694D
:101F5000616C5F72657365745F64656661756C74EE
:101F600073006563686F3A0053657474696E6773D4
:101F70002053746F726564002044002049002020C3
:101F8000204D333031205000504944207365747423
:101F9000696E67733A00205A0020590020204D32A4
:101FA0003036205800486F6D65206F666673657423
:101FB00020286D6D293A00204500205A0020580045
:101FC00020420020540020204D3230352053004163
:101FD0006476616E636564207661726961626C65C6
:101FE000733A20533D4D696E206665656472617475
:101FF0006520286D6D2F73292C20543D4D696E206E
:1020000074726176656C20666565647261746520C2
:10201000286D6D2F73292C20423D6D696E696D7599
:102020006D207365676D656E742074696D65202819
:102030006D73292C20583D6D6178696D756D205840
:1020400059206A65726B20286D6D2F73292C202012
:102050005A3D6D6178696D756D205A206A65726BA5
:1020600020286D6D2F73292C2020453D6D617869E6
:102070006D756D2045206A65726B20286D6D2F731C
:10208000290020540020204D323034205300416379
:1020900063656C65726174696F6E3A20533D61636C
:1020A00063656C65726174696F6E2C20543D726556
:1020B000747261637420616363656C6572617469D5
:1020C0006F6E00204500205A0020590020204D321C
:1020D00030312058004D6178696D756D2041636322
:1020E000656C65726174696F6E20286D6D2F733237
:1020F000293A00204500205A0020590020204D3266
:1021000030332058004D6178696D756D20666565C6
:1021100064726174657320286D6D2F73293A0020F5
:102120004500205A0020590020204D393220580007
:1021300053746570732070657220756E69743A000F
:10214000563031300053746F726564207365747457
:10215000696E67732072657472696576656400489C
:10216000617264636F6465642044656661756C7454
:102170002053657474696E6773204C6F6164656485
:10218000006563686F3A002200656E717565696E5F
:10219000672022002200656E717565696E672022D6
:1021A00000000066430080604300006143000000BF
:1021B000000000000000000000000000000080603F
:1021C0004300006143202D20496E76616C696420D4
:1021D0006578747275646572206E756D62657220C3
:1021E00021000000000018070100A80714003008B3
:1021F0002800B8083C0038095000C0096400480AAB
:102200007800C80A8C00480BA000C80BB400480C2A
:10221000C800C80CDC00400DF000C00D0401380EF1
:102220001801B00E2C01280F4001A00F5401181006
:10223000680188107C01001190013013F4014815E9
:1022400058024017BC0228192003F01A8403A81C66
:10225000E803401E4C043A20457874727564657238
:10226000207377697463686564206F66662E204DFD
:10227000415854454D5020747269676765726564B2
:102280002021003A20457874727564657220737756
:10229000697463686564206F66662E204D494E54EC
:1022A000454D50207472696767657265642021002E
:1022B00054656D70657261747572652068656174CE
:1022C000656420626564207377697463686564205F
:1022D0006F66662E204D415854454D5020747269EA
:1022E000676765726564202121004572726F723ADA
:1022F0000000002100240027002A002D00300033B8
:102300000001010000040107010A0100002200256C
:102310000028002B002E00310034000201000005CF
:102320000108010B01050505050705080808080255
:102330000202020A0A08080404040401010101015E
:102340000101010303030303030303040707070C4D
:102350000C0C0C0C0C0C0C02020202060606060603
:102360000606060B0B0B0B0B0B0B0B0102102020B0
:1023700008081020401020408002010201080402D9
:10238000010102040810204080804020100804024F
:1023900001800402018040201008040201080402A8
:1023A00001010204081020408001020408102040AE
:1023B0008000000A0B02090C0D0E0807030401003F
:1023C000000000000000000000000000000000000D
:1023D00000000000000000000000000000121110CA
:1023E00000000000000000000000000000000000ED
:1023F000000000000000003F3F3F0020476C6F7767
:10240000207768656E20646F6E6500204F6E2077C0
:1024100068696C65207072696E74696E670020412E
:102420006C77617973204F66660020416C77617923
:1024300073204F6E004272696768746E6573730033
:102440003C2052455455524E0025002500427269E9
:102450006768746E657373004C45440047323820DA
:1024600058302059300047312046256920582569C9
:102470002059256900473238205830205930005201
:10248000455455524E0053455454494E475300430A
:1024900048414E474500666F72206D6174657269F0
:1024A000616C2072656D6F76616C0048656174695E
:1024B0006E67207072696E7468656164005265763B
:1024C000657273696E67206D6174657269616C0015
:1024D00052656D6F7665206D6174657269616C001F
:1024E00043414E43454C0052454144590025004666
:1024F000616E3A2000430043002500466C6F773A36
:10250000006D6D004D4154455249414C006D617460
:10251000657269616C20696E73657274696F6E00B3
:10252000436F6F6C696E67207072696E7468656165
:102530006420666F720048656174696E672070720E
:10254000696E746865616420666F720061626F769F
:102550006520746865206172726F772E00796F75DF
:1025600072206D616368696E652C0066726F6D2004
:10257000746865206261636B73696465206F6600CF
:10258000496E73657274206E6577206D6174657233
:1025900069616C0043414E43454C005245414459EA
:1025A00000466F7277617264696E67206D61746551
:1025B0007269616C00636F6D6573206F7574207450
:1025C0006865206E6F7A7A6C650057616974207453
:1025D000696C6C206D6174657269616C0043414E79
:1025E00043454C00524541445900696E204D4154C9
:1025F000455249414C2E54585400746F20746865FC
:102600002053442063617264005361766564206DD9
:102610006174657269616C73004F6B000A006469D4
:10262000616D657465723D000A00666C6F773D00F0
:102630000A0066616E5F73706565643D000A006242
:1026400065645F74656D70657261747572653D0077
:102650000A003D0072657472616374696F6E5F7326
:10266000706565645F000A003D00726574726163A5
:1026700074696F6E5F6C656E6774685F000A003D19
:102680000074656D70657261747572655F000A0033
:1026900074656D70657261747572653D000A006ED7
:1026A000616D653D005B6D6174657269616C5D0AA9
:1026B0000052656164696E6720636172642E2E2E1C
:1026C00000506C6561736520696E73657274206378
:1026D000617264004E6F2053442D434152442100E7
:1026E0007C3C3E5E2B3D3F2F5B5D3B2C2A225C00F9
:1026F00066726F6D20746865205344206361726454
:10270000006D6174657269616C206C6F6164004575
:1027100072726F7220647572696E670066726F6D97
:10272000207468652053442063617264004C6F61BB
:10273000646564206D6174657269616C73004F6BD0
:10274000006C63645F6D6174657269616C5F63687E
:1027500065636B5F72657472616374696F6E5F73DA
:102760007065656420666F756E642070726F626C50
:10277000656D0072657472616374696F6E5F73700A
:102780006565645F006C63645F6D61746572696147
:102790006C5F636865636B5F7265747261637469B3
:1027A0006F6E5F6C656E67746820666F756E64200F
:1027B00070726F626C656D007265747261637469CA
:1027C0006F6E5F6C656E6774685F006C63645F6DED
:1027D0006174657269616C5F636865636B5F746582
:1027E0006D706572617475726520666F756E6420B8
:1027F00070726F626C656D0074656D706572617486
:102800007572655F006C63645F6D617465726961A8
:102810006C5F636865636B5F6D6174657269616C41
:102820005F6469616D6574657220666F756E6420A2
:1028300070726F626C656D006469616D657465725C
:10284000006C63645F6D6174657269616C5F63687D
:1028500065636B5F6D6174657269616C5F666C6FF7
:102860007720666F756E642070726F626C656D00A4
:10287000666C6F77006C63645F6D6174657269612B
:102880006C5F636865636B5F66616E5F73706565DF
:102890006420666F756E642070726F626C656D0087
:1028A00066616E5F7370656564006C63645F6D6123
:1028B00074657269616C5F636865636B5F626564B0
:1028C0005F74656D706572617475726520666F7591
:1028D0006E642070726F626C656D006265645F7417
:1028E000656D7065726174757265006C63645F6DAF
:1028F0006174657269616C5F636865636B5F746561
:102900006D706572617475726520666F756E642096
:1029100070726F626C656D004572726F723A00740E
:10292000656D706572617475726500416464696E8D
:1029300067206D6174657269616C20006E616D6500
:10294000005B6D6174657269616C5D0053746172E6
:10295000742072656164206D6174657269616C7365
:1029600000466F756E64206F6E20636172642E0086
:102970004E6F206578706F72742066696C650052C6
:10298000656164696E6720636172642E2E2E00504B
:102990006C6561736520696E736572742063617222
:1029A00064004E6F2053442D43415244210045782A
:1029B000706F727420746F20534400496D706F7291
:1029C000742066726F6D20534400437573746F6D8D
:1029D000697A65003C2052455455524E0025004608
:1029E000616E3A2000430043002500466C6F773A41
:1029F000006D6D004C6F61647320616C6C206D61C3
:102A000074657269616C7300536176657320616CE3
:102A10006C206D6174657269616C73004D6F6469DF
:102A20006679207468652073657474696E677300D5
:102A30004D4154455249414C0053656C6563746582
:102A400064206D6174657269616C3A004F4B003FA0
:102A50003F3F0053746F726520617320707265731D
:102A600065740052657472616374696F6E00466CC0
:102A70006F7720250046616E004469616D6574655D
:102A80007200486561746564206275696C64706C7D
:102A90006174650054656D7065726174757265006E
:102AA0003C2052455455524E00250025006D6D00C6
:102AB000430043200043200053442063617264209C
:102AC0006F6B006F70656E526F6F74206661696C1A
:102AD000656400766F6C756D652E696E697420662D
:102AE00061696C6564004572726F723A00534420EC
:102AF000696E6974206661696C006563686F3A008D
:102B00004D3234004D3233202573006175746F25CA
:102B1000692E6700000000000000005F0000000751
:102B2000000700147F147F14242A7F2A122313081D
:102B3000646236495522500005030000001C224102
:102B4000000041221C00082A1C2A0808083E080828
:102B500000503000000808080808006060000020ED
:102B6000100804023E5149453E00427F4000426148
:102B70005149462141454B311814127F10274545D4
:102B800045393C4A494930017109050336494949EB
:102B900036064949291E0036360000005636000028
:102BA00000081422411414141414412214080002C1
:102BB00001510906324979413E7E1111117E7F494A
:102BC0004949363E414141227F4141221C7F4949CA
:102BD00049417F090901013E414151327F080808FE
:102BE0007F00417F41002040413F017F0814224186
:102BF0007F404040407F0204027F7F0408107F3EF8
:102C00004141413E7F090909063E4151215E7F094C
:102C1000192946464949493101017F01013F404098
:102C2000403F1F2040201F7F2018207F631408147E
:102C3000630304780403615149454300007F414127
:102C4000020408102041417F0000040201020440F8
:102C500040404040000102040020545454787F4812
:102C60004444383844444420384444487F38545419
:102C70005418087E090102081454543C7F080404C7
:102C80007800447D40002040443D00007F102844EF
:102C900000417F40007C041804787C0804047838E4
:102CA000444444387C14141408081414187C7C0818
:102CB0000404084854545420043F4440203C4040FD
:102CC000207C1C2040201C3C4030403C44281028E4
:102CD000440C5050503C4464544C4400083641006D
:102CE00000007F0000004136080008082A1C080880
:102CF0001C2A0808801506060606FEFEFEFEFC00DD
:102D0000000000000000FCFEFEFEFC0000000EFEC5
:102D1000FEFEFE0000E0FCFEFEFCE0E0000000CE57
:102D2000CECE000000C0C0C0C0C0C0800000000007
:102D3000000080C0C0800000000000008080C0C093
:102D4000C0C0C0C0C080800000000006FEFEFEFEC5
:102D50000000000080C0C0C00000000000008080B3
:102D6000C0C0C080808000000000C0C0C0C0008023
:102D7000C0C0C0C08000000000007FFFFFFFFF80D8
:102D8000000000000080FFFFFFFFFF00000000FFC9
:102D9000FFFFFF000000FFFFFFFF0000000000FF3B
:102DA000FFFF00000081F1FFFF3F0F3FFFFCF0F04D
:102DB000FCFF3F0F3FFFFEF880000000C1E1F1F192
:102DC0007131010183FFFFFFFC000000FFFFFFFFE7
:102DD000000C3EFFFFF7C301000000FCFEFF87036D
:102DE000113131333F3F3F1E000001FFFFFFFF075E
:102DF0000301010101000000000000010307070FAB
:102E00000F0F0F0F0F0F0707070F0F060000000728
:102E10000F0F07000000070F0F0700000000000F52
:102E20000F0F0000060F0F070100000001070F0F32
:102E3000070100000001070F0F06000003070F0F36
:102E40000E0E060703070F0F07000000070F0F07FE
:102E500000000000030F0F0F060000000307070F1C
:102E60000E0E0E0E0E0E06000000000F0F0F0F00CC
:102E700000000000000043616E6E6F74206F70658B
:102E80006E207375626469720057726974696E6747
:102E900020746F2066696C653A20002E006F7065A3
:102EA0006E206661696C65642C2046696C653A2009
:102EB000002E006F70656E206661696C65642C2061
:102EC00046696C653A200046696C652073656C65DF
:102ED00063746564002053697A653A200046696C22
:102EE00065206F70656E65643A20002E006F706516
:102EF0006E206661696C65642C2046696C653A20B9
:102F00000024F4D43050C38E20C2A24017828B70AC
:102F100011127A910D816CD90AA861E108C758662F
:102F200007615143061E4B5D05C145A7041A4111B7
:102F300004093D9803713931034036DB0265339152
:102F400002D4305402802E1D02632CEE01752AC576
:102F500001B028A001102781018F2564012B244B8B
:102F600001E0223401AC211F018D200D01801FFCE6
:102F700000841EED00971DDF00B81CD200E61BC6C2
:102F800000201BBC00641AB200B219A8000A19A0E4
:102F9000006A189900D117910040178B00B516846C
:102FA0000031167E00B31579003A157300C7146F0F
:102FB0000058146A00EE1366008813630025135E40
:102FC00000C7125B006C12570015125400C111515A
:102FD0000070114F0021114B00D61049008D104791
:102FE000004610440002104200C00F4000800F3E17
:102FF00000420F3C00060F3B00CB0E3800930E370B
:10300000005C0E3500270E3400F30D3200C10D3187
:1030100000900D3000600D2E00320D2D00050D2C9E
:1030200000D90C2B00AE0C2900850C29005C0C2764
:1030300000350C27000E0C2600E80B2400C40B24DE
:1030400000A00B23007D0B23005A0B2100390B211C
:1030500000180B2000F80A1F00D90A1E00BB0A1E28
:10306000009D0A1D00800A1D00630A1C00470A1B00
:10307000002C0A1B00110A1A00F7091A00DD0919B1
:1030800000C4091900AB091900920917007B09183F
:1030900000630917004C09160036091600200916AE
:1030A000000A091500F5081500E0081400CC081402
:1030B00000B8081400A4081400900813007D08123A
:1030C000006B08130058081200460812003408115B
:1030D00000230811001208110001081100F0071068
:1030E00000E0071000D0071000C0071000B0070F65
:1030F00000A107100091070E0083070F0074070F4F
:103100000065070E0057070E0049070E003B070D2C
:10311000002E070E0020070D0013070D0006070DF7
:1031200000F9060C00ED060D00E0060C00D4060CBC
:1031300000C8060C00BC060C00B0060C00A4060B70
:103140000099060C008D060B0082060B0077060B1B
:10315000006C060B0061060A0057060B004C060ABD
:103160000042060A0038060A002E060A0024060A53
:10317000001A060A001006090007060A00FD0509E4
:1031800000F4050900EB050900E2050900D905096D
:1031900000D0050900C7050900BE050900B50508EE
:1031A00000AD050800A50509009C05080094050868
:1031B000008C050800840508007C050800740508DB
:1031C000006C050700650508005D05070056050849
:1031D000004E0507004705070040050800380507B1
:1031E00000310507002A050700230507001C050616
:1031F00000160507000F0507000805060002050771
:1032000000FB040600F5040700EE040600E80406CF
:1032100000E2040700DB040600D5040600CF040624
:1032200000C9040600C3040600BD040600B7040676
:1032300000B1040500AC040600A6040600A00405C5
:10324000009B04060095040500900406008A04050E
:103250000085040500800406007A04050075040555
:1032600000700405006B0405006604050061040598
:10327000005C04050057040500520405004D0405D8
:103280000048040500430405003E0404003A040518
:103290000035040500300404002C04050027040454
:1032A00000230405001E0404001A0404001604058B
:1032B00000110404000D04040009040500040404C2
:1032C0000000040400FC030400F8030400F40304F9
:1032D00000F0030400EC030400E8030400E403042A
:1032E00000E0030400DC030400D8030400D403045A
:1032F00000D0030400CC030400C8030300C503038B
:103300000024F404D9201BC40C5C0E9804C4095F8B
:103310000265077101F405F900FB04B30048048756
:1033200000C10369005803550003034500BE023A7B
:10333000008402310053022A0029022500040220E1
:1033400000E4011C00C8011900AF01170098011426
:103350000084011300710110006101100051010E81
:103360000043010D0036010B002B010B0020010B67
:1033700000150109000C01090003010800FB000809
:1033800000F3000800EB000700E4000600DE000682
:1033900000D8000600D2000600CC000500C70005DA
:1033A00000C2000500BD000400B9000400B500041F
:1033B00000B1000400AD000400A9000400A5000352
:1033C00000A20003009F0004009B0003009800037C
:1033D000009500020093000300900003008D00029E
:1033E000008B0003008800020086000200840003B6
:1033F00000810002007F0002007D0002007B0002CD
:1034000000790002007700010076000200740002DB
:103410000072000100710002006F0002006D0001E7
:10342000006C0002006A00010069000200670001F0
:1034300000660001006500010064000200620001F6
:103440000061000100600001005F0002005D0001FA
:10345000005C0001005B0001005A000100590001FE
:1034600000580001005700010056000100550001FE
:1034700000540001005300000053000100520001FD
:103480000051000100500001004F0001004E0000FB
:10349000004E0001004D0001004C0001004B0000F7
:1034A000004B0001004A00010049000100480000F3
:1034B00000480001004700010046000000460001EE
:1034C00000450000004500010044000100430000E9
:1034D00000430001004200000042000100410000E2
:1034E0000041000100400001003F0000003F0001DA
:1034F000003E0000003E0001003D0000003D0001D4
:10350000003C0000003C0000003C0001003B0000CB
:10351000003B0001003A0000003A000100390000C1
:1035200000390001003800000038000000380001B8
:1035300000370000003700010036000000360000B0
:1035400000360001003500000035000000350001A4
:10355000003400000034000000340001003300009B
:103560000033000000330001003200000032000090
:103570000032000100310000003100000031000184
:10358000003000000030000000300001002F00007B
:10359000002F0000002F0000002F0001002E00006F
:1035A000002E0000002E0001002D0000002D000064
:1035B000002D0000002D0001002C0000002C000058
:1035C000002C0000002C0001002B0000002B00004C
:1035D000002B0000002B0001002A0000002A000040
:1035E000002A0000002A0001002900000029000034
:1035F0000029000000290000002900010028000027
:103600000028000000280000002800000028000119
:10361000002700000027000000270000002700000E
:103620000027000100260000002600000026000000
:1036300000260000002600010025000000250000F3
:1036400000250000002500000025000000250001E5
:1036500000240000002400000024000000240000DA
:1036600000240001002300000023000000230000CC
:1036700000230000002300000023000000230001BD
:1036800000220000002200000022000000220000B2
:1036900000220000002200010021000000210000A3
:1036A0000021000000210000002100000021000096
:1036B0000021000100200000002000000020000088
:1036C000002000000020000000200000002000007A
:1036D00000200001001F0000001F0000001F00006C
:1036E000001F0000001F0000001F0000001F00015D
:1036F000001E0000001E0000001E0000001E000052
:10370000004D38340047323800473238205A3000F4
:10371000473238205830205930004731204625693B
:103720002045300047393220452569004D3430317D
:10373000003C204241434B003C2052455455524EE0
:10374000004E6F20696E666F20617661696C616200
:103750006C65004E6F7A7A6C653A20006D006D00E2
:103760004D6174657269616C3A200054696D653A07
:1037700020003B4D545950453A003B4E4F5A5A4C4D
:10378000455F4449414D455445523A003B4D4154F3
:10379000455249414C3A003B54494D453A00466F29
:1037A0006C64657200526573656E643A20006F6BDD
:1037B0000000BFE89EE811241FBECFEFD1E2DEBFBC
:1037C000CDBF00E00CBF13E0A0E0B2E0ECE7FBEE01
:1037D00001E00BBF02C007900D92AC33B107D9F7DF
:1037E0002AE1ACE3B3E001C01D92AF31B207E1F7CB
:1037F0001BE1CAEDDBE100E006C021970109802F43
:10380000FE010E9402F5C93DD10780E00807A9F733
:103810000E94CBDB0C94ADF50C9400002F923F92EC
:103820004F925F926F927F928F929F92AF92BF92D0
:10383000CF92DF92EF92FF920F931F93CF93DF937C
:10384000CDB7DEB7CB56D1090FB6F894DEBF0FBEA9
:10385000CDBF10923B0B87E40E949B8CF82E8823EF
:1038600009F419C40E94C18C0E9493F26A30710558
:1038700009F48EC084F46230710581F124F477FF7D
:1038800023C00C94BC376330710581F1643071053D
:10389000C1F10C94BC376A35710509F4BCC354F40A
:1038A0006B30710509F40AC16C31710509F47CC1F2
:1038B0000C94BC376B35710509F4B1C36C357105D7
:1038C00009F4B2C30C94BC378091C804811106C0BE
:1038D0000E9490D90E94D1D80C94983D8091C80440
:1038E000811104C00E94F4DA81E007C08091C8040D
:1038F000811107C00E94F4DA80E00E943B570C94CB
:10390000983D80E50E949B8C882339F00E94C18CF1
:103910000E9499F26B017C0103C0C12CD12C76016D
:1039200083E50E949B8C882361F00E94C18C20E07B
:1039300030E04AE754E40E9458E90E9499F26B0192
:103940007C010E94989D0E941396C60ED71EE81E09
:10395000F91E0E94139660931D0870931E088093B1
:103960001F089093200881E080933B0B0E941396E0
:103970006C157D058E059F0510F00C94BC370E94D8
:10398000C6990E9497560E94754F0E946269EECFB9
:103990008091FA1981110C94BC3780918D0C909113
:1039A0008E0CA0918F0CB091900C8093E20A9093B2
:1039B000E30AA093E40AB093E50A8091910C9091F8
:1039C000920CA091930CB091940C8093E60A909382
:1039D000E70AA093E80AB093E90A8091950C9091C8
:1039E000960CA091970CB091980C8093EA0A909352
:1039F000EB0AA093EC0AB093ED0AC090990CD0901A
:103A00009A0CE0909B0CF0909C0CE091B50C24E09B
:103A1000E29FF0011124EF54F34F20813181428164
:103A200053816091290270912A0280912B0290911A
:103A30002C020E9422F29B01AC01C701B6010E9438
:103A40003FF19B01AC016093EE0A7093EF0A809303
:103A5000F00A9093F10A80901E0290901F02A090AD
:103A60002002B09021028091250290912602A0911F
:103A70002702B091280280931E0290931F02A09308
:103A80002002B0932102C701B6010E943FF160936A
:103A9000FF197093001A8093011A9093021A81E023
:103AA0008093FA190E94D1D880921E0290921F0230
:103AB000A0922002B09221020C94BC378091FA1996
:103AC000882311F40C94BC3780918D0C90918E0C4E
:103AD000A0918F0CB091900C8093E20A9093E30A2E
:103AE000A093E40AB093E50A8091910C9091920C16
:103AF000A091930CB091940C8093E60A9093E70AFE
:103B0000A093E80AB093E90A8091950C9091960CE5
:103B1000A091970CB091980C8093EA0A9093EB0ACD
:103B2000A093EC0AB093ED0A2091FF193091001A8E
:103B30004091011A5091021A6091990C70919A0C5F
:103B400080919B0C90919C0C0E9440F16093EE0A36
:103B50007093EF0A8093F00A9093F10AC0901E02CE
:103B6000D0901F02E0902002F0902102809152023A
:103B700090915302A0915402B091550280931E027D
:103B800090931F02A0932002B09321021092FA1981
:103B90000E94D1D8C0921E02D0921F02E092200251
:103BA000F09221020C94BC3785E080933B0B80910E
:103BB0001E0290911F02A0912002B09121028093D9
:103BC0003E0390933F03A0934003B0934103809141
:103BD00023029091240290933D0380933C0384E65A
:103BE00090E090932402809323020E9413966093A6
:103BF0001D0870931E0880931F089093200811E001
:103C00001093190280918D0C90918E0CA0918F0CC5
:103C1000B091900C8093E20A9093E30AA093E40A97
:103C2000B093E50A8091910C9091920CA091930C25
:103C3000B091940C8093E60A9093E70AA093E80A67
:103C4000B093E90A8091950C9091960CA091970CF5
:103C5000B091980C8093EA0A9093EB0AA093EC0A37
:103C6000B093ED0A8091990C90919A0CA0919B0CC5
:103C7000B0919C0C8093EE0A9093EF0AA093F00A07
:103C8000B093F10A10921E0210921F0210922002AD
:103C90001092210288E50E949B8C882311F080E01D
:103CA00009C089E50E949B8C8111F9CF8AE50E94A9
:103CB0009B8C812780930402882309F4F4C010921E
:103CC0008D0C10928E0C10928F0C1092900C109202
:103CD000910C1092920C1092930C1092940C1092E2
:103CE000950C1092960C1092970C1092980C0E94C2
:103CF000DEBC80E090E8ACEAB3EC8093E20A9093FB
:103D0000E30AA093E40AB093E50A80E090E6A8EA0B
:103D1000B3E48093E60A9093E70AA093E80AB0938D
:103D2000E90A80E090ECA8EAB3E48093EA0A909371
:103D3000EB0AA093EC0AB093ED0A80E090E8ABEBBD
:103D4000B5E480931E0290931F02A0932002B093CB
:103D5000210245EBC42E4CE0D42EE12CF12C08ECD2
:103D600012E42EEE3AE04AEE5AE066EE7AE082EE97
:103D70009AE00E94E96A0E94989D0E94AFD080E07C
:103D800090E00E94638C81E090E00E94638C82E06E
:103D900090E00E94638C0E94DEBC80918D0C90911B
:103DA0008E0CA0918F0CB091900C8093E20A9093AE
:103DB000E30AA093E40AB093E50A8091910C9091F4
:103DC000920CA091930CB091940C8093E60A90937E
:103DD000E70AA093E80AB093E90A8091950C9091C4
:103DE000960CA091970CB091980C8093EA0A90934E
:103DF000EB0AA093EC0AB093ED0A20E030E040E734
:103E000052E460911E0270911F02809120029091F5
:103E100021020E9422F27B018C012EEE3AE04AEE52
:103E20005AE066EE7AE082EE9AE00E94E96A109229
:103E30001E0210921F0210922002109221020E9474
:103E4000989D0E94AFD08091E20A9091E30AA091E0
:103E5000E40AB091E50A80938D0C90938E0CA093A8
:103E60008F0CB093900C8091E60A9091E70AA09194
:103E7000E80AB091E90A8093910C9093920CA09378
:103E8000930CB093940C8091EA0A9091EB0AA09164
:103E9000EC0AB091ED0A8093950C9093960CA09348
:103EA000970CB093980C8091040281110C94C13747
:103EB0008AE50E949B8C81110C94C1378091040289
:103EC00081110C94C73788E50E949B8C882331F0C0
:103ED00089E50E949B8C81110C94C7378091040264
:103EE00081110C94933888E50E949B8C81110C946D
:103EF00093388091040281110C94993889E50E94CD
:103F00009B8C81110C94993888E50E949B8C8823A6
:103F1000D1F00E94B68C672B682B692BA1F00E9410
:103F2000C18C2091FE073091FF074091000850910D
:103F300001080E9440F160938D0C70938E0C809369
:103F40008F0C9093900C89E50E949B8C8823D1F074
:103F50000E94B68C672B682B692BA1F00E94C18C44
:103F600020910208309103084091040850910508FF
:103F70000E9440F16093910C7093920C8093930C8B
:103F80009093940C8AE50E949B8C8823D1F00E9428
:103F9000B68C672B682B692BA1F00E94C18C2091F5
:103FA00006083091070840910808509109080E94BE
:103FB00040F16093950C7093960C8093970C9093BE
:103FC000980C0E94DEBC1092190280913E039091E1
:103FD0003F03A0914003B091410380931E02909350
:103FE0001F02A0932002B093210280913C03909184
:103FF0003D0390932402809323020E9413966093C2
:104000001D0870931E0880931F08909320080E943B
:10401000AFD00C94BC371092081A0C94BC3781E0D6
:104020008093081A0C94BC3785E40E949B8C811104
:1040300002C00E94989D23E1C22E23E0D22E3DE8CB
:10404000E32E3CE0F32E10E0D6018D916D010E942D
:104050009B8C8823C1F0133061F40E94C18CF7015E
:10406000608371838283938389E99CE00E9474D189
:104070000AC00E94C18CD7016D937D938D939C9350
:1040800013970E94DEBC1F5FB4E0EB0EF11C1430EE
:10409000D9F60C94BC378DE40E949B8C882311F4D4
:1040A0000C9448350E94C18C0E9493F26E3B7105BE
:1040B00009F438C50CF0C3C06135710509F468C650
:1040C0000CF05BC06831710509F425C27CF56231E2
:1040D000710509F466C69CF477FF02C00C94BC37E6
:1040E000623071050CF493C16131710511F00C94CB
:1040F000BC3715984698439840980C94BC37653166
:10410000710509F4E6C144F46431710511F00C94B1
:10411000BC37E5E5F6E094C16631710509F4DDC10F
:104120006731710509F4E1C10C94BC376C3171053C
:1041300009F482C254F46A31710509F401C20CF029
:104140000DC20E9405C70C94BC376F31710509F48C
:1041500011C334F46E31710509F4A0C20C94BC375C
:104160006A32710509F462C36035710511F00C946F
:10417000BC370A9A129A0C94BC376B36710509F455
:1041800003C69CF56535710509F443C654F46335DF
:10419000710509F401C60CF004C610920C1A0C94B7
:1041A000BC376836710509F47BC3ACF46C35710516
:1041B00011F00C94BC3753E1852E53E0952E06EC9C
:1041C0001CE06EE1A62E6BE0B62E23EE34E13DAF8F
:1041D0002CAF312CA0C66936710509F4A4C36A3628
:1041E000710509F45CC50C94BC376537710509F499
:1041F000B1C674F46237710509F4BEC66337710540
:1042000009F499C66D36710511F00C94BC3731C4B0
:104210006837710509F475C744F46737710511F003
:104220000C94BC37EBE2F5E07CC76937710509F403
:104230006CC76C38710509F45AC30C94BC37643FE1
:10424000E1E07E0711F40C9412300CF064C06C3D78
:10425000710511F40C94882A7CF56D3C710511F4FC
:104260000C945329ACF46B3C710509F4DCC70CF0D9
:10427000F8C7693C710511F00C94BC3733EFE32E9D
:1042800034E1F32E03E113E044E0D42ED00EB2C7A4
:104290006F3C710511F40C94D12914F40C94B329DA
:1042A000603D710511F40C94022A613D710511F411
:1042B0000C94242A0C94BC376E3221E0720711F45E
:1042C0000C94AE2C84F46C3241E0740711F40C941D
:1042D000B02A14F00C943D2B6D3D710511F40C9433
:1042E000992A0C94BC37603381E0780711F40C9460
:1042F000092C14F40C94C32C6039A1E07A0711F452
:104300000C940F306139714011F00C94BC370E944D
:104310001D9D0C94BC37603AE3E07E0709F4F5C1BB
:104320009CF5693522E0720711F40C941B3094F46B
:10433000663F41E0740711F40C94183014F40C94A7
:104340001530673F714011F00C94BC370E94608FAC
:104350000C94BC376E3592E0790711F40C94E3327B
:104360003CF46D35724011F40C942A320C94BC3735
:104370006B38E3E07E0711F40C94A0336B39734083
:1043800009F49AC10C94BC37623127E2720711F428
:104390000C94233424F5603147E2740711F40C9433
:1043A000DE3314F00C94E133673E734011F00C944B
:1043B000BC371092C8048091210890912208A091E6
:1043C0002308B09124088093C9049093CA04A09351
:1043D000CB04B093CC040E944EDB0C94BC37643108
:1043E00097E2790711F40C94A43414F40C94743407
:1043F0006531B7E27B0711F40C94D4346A3177420B
:1044000011F00C94BC37E9EAF4E00C940B3581E030
:104410008093E40E8091E40E882311F40C94BC3751
:104420000E94C6990E9497560E94754F0E94626929
:10443000F1CF9091C00095FFFCCF8093C6003196DC
:1044400084918111F6CF8091C00085FFFCCF8AE076
:104450008093C6001092DA101092D91040E050E01C
:10446000BA0186E19FE00E944AAA8BE1E6E1FFE003
:10447000DE01159601900D928A95E1F78091140F57
:104480009091150F9C838B838FEE92E09A838983A2
:10449000BE016F5F7F4F8BE393E00E9412C7CE0196
:1044A00001960E949453E7E4F6E08491882341F05A
:1044B0009091C00095FFFCCF8093C6003196F5CF58
:1044C0008091C00085FFFCCF8AE08093C6000C94E9
:1044D000BC370E9470BB0C94BC371092E30E109254
:1044E000E40E1092110F0C94BC370091CD04109182
:1044F000CE040C5F1F4F6AE270E0C8010E946AF5AB
:10450000009719F0FC013197108261E0C8010E9408
:104510002BC50C94BC378091110F882329F081E0C2
:104520008093E30E1092E40E0E9413966093380479
:104530007093390480933A0490933B040C94BC37F5
:104540008091110F882311F40C94BC3780918B104B
:10455000882311F40C949F380C94BC378091110F70
:104560008823A9F1E1EBF2E08491882341F0909156
:10457000C00095FFFCCF8093C6003196F5CF6091C7
:10458000D4107091D5108091D6109091D7104AE038
:104590000E9474B9EFEAF2E08491882341F090918F
:1045A000C00095FFFCCF8093C6003196F5CF609197
:1045B000CC107091CD108091CE109091CF104AE028
:1045C0000E9474B98091C00085FFFCCF11C0EFE953
:1045D000F2E08491882341F09091C00095FFFCCFD8
:1045E0008093C6003196F5CF8091C00085FFFCCF47
:1045F0008AE08093C60060918B10662311F40C94BE
:10460000BC37E3E9F2E08491882341F09091C00047
:1046100095FFFCCF8093C6003196F5CF70E080E027
:1046200090E00E94E9B98091C00085FFFCCF8AE04C
:104630008093C6000C94BC378091CD049091CE0439
:104640006AE270E004960E946AF58C01892BE1F021
:104650002091E8073091E90740E6429FC001439F5F
:10466000900D11246EE470E088519B4F0E946AF512
:1046700060E270E00E946AF501969093CE04809308
:10468000CD04F801319710828091CD049091CE0431
:1046900060E004960E942BC50C94BC378091110FEA
:1046A000882311F40C94BC3780918B10882311F46B
:1046B0000C94B6380C94BC370091CD041091CE0404
:1046C0000C5F1F4F6AE270E0C8010E946AF5009714
:1046D00019F0FC013197108261E0C8010E942BC5DE
:1046E0008091110F882329F081E08093E30E1092CE
:1046F000E40E0E94139660933804709339048093FB
:104700003A0490933B040C94BC378091CD04909173
:10471000CE046AE270E005960E946AF58C01892B4E
:10472000E1F02091E8073091E90740E6429FC0019F
:10473000439F900D11246EE470E088519B4F0E94BE
:104740006AF560E270E00E946AF501969093CE04EB
:104750008093CD04F801319710828091CD0490911F
:10476000CE0421E02093E20E60E005960E942BC566
:104770000C94BC370E94139660933C0470933D04E4
:1047800080933E0490933F040091380410913904C3
:1047900020913A0430913B04601B710B820B930B08
:1047A00028EE33E040E050E00E9404F1CA01B90174
:1047B0002CE330E040E050E00E9404F17F936F93DF
:1047C0003F932F9388E396E09F938F938E010F5F23
:1047D0001F4F1F930F930E9483EDE4E5F7E0849150
:1047E0000FB6F894DEBF0FBECDBFE4E5F7E0882337
:1047F00049F09091C00095FFFCCF8093C6003196A0
:104800008491F5CFF8018191882339F09091C0000F
:1048100095FFFCCF8093C600F6CF8091C00085FF46
:10482000FCCF8AE08093C6000C94BC3783E50E94DD
:104830009B8C882311F40C94BC370E94C18C0E947D
:1048400093F2F62EE72E862F9E2D8C0180E50E9496
:104850009B8C882331F00F3F110509F010F40C9464
:10486000273A88E090E0E6E6F2E0219131912817BE
:10487000390711F40C94BC3722E0EE39F207A9F79E
:104880008730910519F4F0923A0B04C097FF02C0EB
:104890000C94BC376F2D7E2D0E9427950C94BC374D
:1048A00088E690E00E949C5381110C94BC3783E50C
:1048B0000E949B8C882311F40C94BC37009125082E
:1048C0000E94C18C10E00E9493F2F801EE0FFF1FCE
:1048D000EA5EF34F718360836430714014F40C948A
:1048E000BC3784E091E0918380830C94BC3783E5EE
:1048F0000E949B8C882311F40C94BC370E94C18CBD
:104900000E9493F27093190C6093180C6337710531
:1049100014F40C94BC3783E790E09093190C8093C7
:10492000180C0C94BC3789E690E00E949C538111CE
:104930000C94BC37E2E3F6E08491882341F0909137
:10494000C00095FFFCCF8093C6003196F5CFE09173
:10495000250844E0E49FF0011124EE5EF34F6081EE
:1049600071818281938141E00E94FBB9EFE2F6E020
:104970008491882341F09091C00095FFFCCF8093F3
:10498000C6003196F5CFE0912508F0E0EE0FFF1F4D
:10499000EA5EF34F60817181072E000C880B990B42
:1049A0000E94B8ED41E00E94FBB9EBE2F6E0849191
:1049B000882341F09091C00095FFFCCF8093C60002
:1049C0003196F5CF60910E0C70910F0C8091100C08
:1049D0009091110C41E00E94FBB9E8E2F6E084916D
:1049E000882341F09091C00095FFFCCF8093C600D2
:1049F0003196F5CF6091180C7091190C072E000CB0
:104A0000880B990B0E94B8ED41E00E94FBB9E4E2EB
:104A1000F6E08491882341F09091C00095FFFCCF8F
:104A20008093C6003196F5CFE0912508F0E0E45E72
:104A3000F34F608170E080E090E00E94E9B9EFE11F
:104A4000F6E08491882341F09091C00095FFFCCF5F
:104A50008093C6003196F5CF60911B0C70E080E02A
:104A600090E00E94E9B98091C00085FFFCCF0C94D2
:104A700043358DE690E00E949C5381110C94BC3725
:104A800083E080933B0B83E50E949B8C8823A9F0F5
:104A9000009125080E94C18C10E00E9493F2F80159
:104AA000EE0FFF1FEA5EF34F718360836430714045
:104AB00024F084E091E0918380830E9413962B017F
:104AC0003C01E09125080E2F10E0F801EE0FFF1FCA
:104AD000EA5EF34F60817181072E000C880B990B01
:104AE0000E94B8EDF801EE0FFF1FEE0FFF1FEE5E04
:104AF000F34F11E020813181428153810E947FF385
:104B000018160CF010E088248A94982C540164E163
:104B1000262E66E0362E72E1E72E76E0F72E0AE0CA
:104B20000C94C33A84E080933B0B83E50E949B8CFA
:104B3000882389F00E94C18C0E9493F27093190C13
:104B40006093180C6337710534F083E790E090931D
:104B5000190C8093180C0E9413964B015C010FE016
:104B600016E07BE0E72E76E0F72EE7E0CE2EE6E0DB
:104B7000DE2EFAE07F2E8091180C9091190C02978E
:104B8000BC01990F880B990B0E94B8ED9B01AC01F9
:104B900060910E0C70910F0C8091100C9091110C83
:104BA0000E94B2ED87FF6FC00E941396DC01CB011B
:104BB00088199909AA09BB09893E9340A105B10545
:104BC00008F458C0E091B50C24E0E29FF0011124F4
:104BD000EE5EF34F6081718182819381F8012491AF
:104BE000EFE0F6E0222349F03091C00035FFFCCF22
:104BF0002093C60031962491F5CF42E00E94FBB984
:104C0000F7018491EBE0F6E0882349F09091C00031
:104C100095FFFCCF8093C60031968491F5CF6091CB
:104C2000B50C70E080E090E00E94E9B9F601849153
:104C3000E7E0F6E0882349F09091C00095FFFCCFB3
:104C40008093C60031968491F5CF60910E0C7091DF
:104C50000F0C8091100C9091110C41E00E94FBB957
:104C60008091C00085FFFCCF7092C6000E94139611
:104C70004B015C010E94C6990E9497560E94754F95
:104C80000E94626978CF0E94139660931D0870930A
:104C90001E0880931F08909320080C94BC3783E56E
:104CA0000E949B8C882309F461C00E94C18C6B0117
:104CB0007C0180913302682F70E080E090E00E94D8
:104CC000B8ED9B01AC01C701B6010E9458E920E094
:104CD00030E048EC52E40E9422F220E030E0A901EA
:104CE0000E94B2ED87FD3BC00E94C18C6B017C012C
:104CF00080913302682F70E080E090E00E94B8ED70
:104D00009B01AC01C701B6010E9458E920E030E0E8
:104D100048EC52E40E9422F220E030E04FE753E4F6
:104D20000E947FF31816ECF00E94C18C6B017C018D
:104D300080913302682F70E080E090E00E94B8ED2F
:104D40009B01AC01C701B6010E9458E920E030E0A8
:104D500048EC52E40E9422F20E9499F203C060E003
:104D600001C06FEF60933A0B0C94BC378091330213
:104D7000FFEF8F9FC001112464E670E00E94D3F41E
:104D800060933A0B0C94BC3710923A0B0C94BC37DE
:104D90000A9A12980C94BC3781E080930C1A0C94F8
:104DA000BC3783E50E949B8C8823A1F00E94C18CB4
:104DB00020E030E04AE754E40E9458E90E9499F26A
:104DC00060931A0270931B0280931C0290931D0241
:104DD0000C94BC3788E50E949B8C81110C94713B2C
:104DE00089E50E949B8C81110C94713B8AE50E949D
:104DF0009B8C81110C94713B85E40E949B8C8111EA
:104E00000C94713B0E94989D409A0E94A79D0C941F
:104E1000BC3783E50E949B8C882311F40C94BC372B
:104E20000E94C18C20E030E04AE754E40E9458E937
:104E30000E9499F26093190870931A0880931B08D6
:104E400090931C080C94BC37B3E03B126CC00E94DA
:104E5000C18C2B013C0120E030E040EA51E40E948B
:104E6000B2ED87FF41C0A3019201F8016081718119
:104E7000828193810E9422F26B017C019B01AC0133
:104E800060910A0B70910B0B80910C0B90910D0BA4
:104E90000E9458E960930A0B70930B0B80930C0BE4
:104EA00090930D0BA7019601D5016D917D918D9188
:104EB0009C910E9458E9F5016083718382839383FA
:104EC000ACADBDAD6D917D918D919C910E94B6ED83
:104ED000A70196010E9458E90E9499F2ECADFDAD40
:104EE0006083718382839383D8014D925D926D922A
:104EF0007C92139733940C5F1F4FF4E0AF0EB11CFC
:104F00002CAD3DAD2C5F3F4F3DAF2CAF34E03316A1
:104F100011F40C94BC37D4018D914D010E949B8CEF
:104F2000882341F391CF0E94C18CF8016083718383
:104F300082839383DFCFE1E6F5E08491882311F447
:104F40000C94BC379091C00095FFFCCF8093C600B5
:104F50003196F3CF8091CD049091CE046AE270E057
:104F600005960E946AF5009711F40C94BC37FC0179
:104F7000319710820C94BC37EEE5F5E084918823DC
:104F800041F09091C00095FFFCCF8093C600319610
:104F9000F5CF60918D0C70918E0C80918F0C90915B
:104FA000900C42E00E94FBB9EBE5F5E08491882388
:104FB00041F09091C00095FFFCCF8093C6003196E0
:104FC000F5CF6091910C7091920C8091930C90911F
:104FD000940C42E00E94FBB9E8E5F5E08491882357
:104FE00041F09091C00095FFFCCF8093C6003196B0
:104FF000F5CF6091950C7091960C8091970C9091E3
:10500000980C42E00E94FBB9E5E5F5E08491882325
:1050100041F09091C00095FFFCCF8093C60031967F
:10502000F5CF6091990C70919A0C80919B0C9091A6
:105030009C0C42E00E94FBB9EAE4F5E084918823ED
:1050400041F09091C00095FFFCCF8093C60031964F
:10505000F5CF0E940F9D0E94B8ED2091C60C3091B3
:10506000C70C4091C80C5091C90C0E9422F242E03A
:105070000E94FBB9E7E4F5E08491882341F0909128
:10508000C00095FFFCCF8093C6003196F5CF81E03C
:105090000E940F9D0E94B8ED2091CA0C3091CB0C5C
:1050A0004091CC0C5091CD0C0E9422F242E00E9423
:1050B000FBB9E4E4F5E08491882341F09091C000CD
:1050C00095FFFCCF8093C6003196F5CF82E00E9419
:1050D0000F9D0E94B8ED2091CE0C3091CF0C4091E5
:1050E000D00C5091D10C0E9422F242E00E94FBB9F8
:1050F0008091C00085FFFCCF8AE08093C6000C94AD
:10510000BC37109219020C94BC3781E080931902CD
:105110000C94BC379091C00095FFFCCF8093C600E3
:10512000319684918111F6CF8091C00085FFFCCF2C
:105130008AE08093C600E3E2F5E08491882341F0A1
:105140009091C00095FFFCCF8093C6003196F5CFBB
:10515000009B03C0E4E1F5E00AC0E9E1F5E007C027
:105160009091C00095FFFCCF8093C600319684914A
:105170008111F6CFECE0F5E08491882341F0909125
:10518000C00095FFFCCF8093C6003196F5CF049BFD
:1051900003C0EDEFF4E00AC0E2E0F5E007C0909153
:1051A000C00095FFFCCF8093C60031968491811199
:1051B000F6CFE5EFF4E08491882341F09091C000B0
:1051C00095FFFCCF8093C6003196F5CF079B03C0B7
:1051D000E6EEF4E00AC0EBEEF4E007C09091C00008
:1051E00095FFFCCF8093C600319684918111F6CF54
:1051F0000C94BC37D8018D918D010E949B8C882323
:1052000049F00E94C18C0E9499F2F701608371837A
:1052100082839383F4E0EF0EF11CD012EBCF0E9457
:1052200025D10C94BC379EE1E92E9BE0F92E03E1D9
:1052300013E024E0D22ED00ED8018D918D010E9472
:105240009B8C882339F00E94C18CF70160837183A5
:1052500082839383F4E0EF0EF11CD012EDCF0C9417
:10526000BC3783E50E949B8C882351F00E94C18C3F
:105270006093160B7093170B8093180B9093190B78
:1052800084E50E949B8C882311F40C94BC370E9407
:10529000C18C60931A0B70931B0B80931C0B909323
:1052A0001D0B0C94BC3783E50E949B8C882351F026
:1052B0000E94C18C6093320B7093330B8093340B3C
:1052C0009093350B84E50E949B8C882351F00E94BB
:1052D000C18C6093360B7093370B8093380B90938F
:1052E000390B82E40E949B8C882361F00E94C18C60
:1052F0000E9499F260932E0B70932F0B8093300BCA
:105300009093310B88E50E949B8C882351F00E947A
:10531000C18C6093120B7093130B8093140B9093BA
:10532000150B8AE50E949B8C882351F00E94C18C4A
:1053300060930E0B70930F0B8093100B9093110BD7
:1053400085E40E949B8C882311F40C94BC370E9446
:10535000C18C60930A0B70930B0B80930C0B909392
:105360000D0B0C94BC371EEFE12E17E0F12E03E17C
:1053700013E083E0D82ED00ED8018D918D010E94CC
:105380009B8C882339F00E94C18CF7016083718364
:1053900082839383F4E0EF0EF11CD012EDCF0C94D6
:1053A000BC3783E50E949B8C882351F00E94C18CFE
:1053B0006093290270932A0280932B0290932C020F
:1053C00086E40E949B8C882351F00E94C18C6093DC
:1053D00025027093260280932702909328028AE583
:1053E0000E949B8C882311F40C94BC370E94C18CC2
:1053F000609356027093570280935802909359021B
:105400000C94BC3783E50E949B8C882351F00E944A
:10541000C18C6093FF197093001A8093011A9093C6
:10542000021A86E40E949B8C882311F40C94BC37EA
:105430000E94C18C60935202709353028093540275
:10544000909355020C94BC3783E50E949B8C882373
:1054500011F40C94BC370E94C18C0E9493F2611528
:10546000710551F06130710569F481E08093031A90
:105470001092FA190C94BC371092031A1092FA1970
:105480000C94BC37E4E5F7E08491882341F09091D7
:10549000C00095FFFCCF8093C6003196F5CFE3EDB9
:1054A000F4E08491882341F09091C00095FFFCCFF7
:1054B0008093C6003196F5CF8091E8079091E90777
:1054C00020E6289FF001299FF00D1124E851FB4FA1
:1054D0008191882339F09091C00095FFFCCF809393
:1054E000C600F6CFE1EDF4E08491882341F090917D
:1054F000C00095FFFCCF8093C6003196F5CF809118
:10550000C00085FFFCCF8AE08093C6000C94BC37B6
:1055100083E50E949B8C882311F40C94BC370E9475
:10552000C18C0E9493F270932402609323020C9426
:10553000BC3783E50E949B8C882311F40C94BC3704
:105540000091B50C10E00E94C18C000F111F035D8B
:105550001D4F0E9493F2D8016D937C930C94BC373D
:1055600083E50E949B8C882331F00E94C18C0E94AD
:1055700099F27B0103C0AEE6EA2EF12C80E50E9491
:105580009B8C882311F40C948A3B0E94C18C0E944E
:1055900099F28B01E114F10409F443C0970140E052
:1055A00050E060E271EA87E090E00E94E6F4690171
:1055B0007A01F22FED2DA701013ABFE01B0710F091
:1055C00000EA1FE09801A4EFB1E00E9430F12F2F14
:1055D0003E2F0E9404F1B601CC0CDD1CCC0CDD1C6E
:1055E000E5E0CE1AD10880E090E0DC018217930755
:1055F000A407B50711F40C94BC375B9A62307105AF
:1056000018F0F6013197F1F75B986230710518F0E8
:10561000F6013197F1F70196A11DB11DE7CF08EE14
:1056200013E06801E12CF12C0E94EE954B015C0126
:10563000C114D104E104F10411F40C94BC370E94AC
:10564000EE95DC01CB0188199909AA09BB09883EAE
:105650009340A105B10560F3F1E0CF1AD108E1084C
:10566000F10828EE820E23E0921EA11CB11CC11489
:10567000D104E104F10419F7DBCF80E50E949B8C93
:10568000882351F00E94C18C6093480270934902B4
:1056900080934A0290934B0289E40E949B8C88235A
:1056A00081F00E94C18C2DEB37E346E05DE30E9460
:1056B00058E960930D0270930E0280930F0290934D
:1056C000100284E40E949B8C882381F00E94C18C8C
:1056D0002DEB37E346E05DE30E9422F26093440243
:1056E00070934502809346029093470283E40E94A0
:1056F0009B8C882351F00E94C18C609300027093B0
:10570000010280930202909303020E94D49CEEEC6B
:10571000F4E08491882341F09091C00095FFFCCF84
:105720008093C6003196F5CFEAECF4E084918823AB
:1057300041F09091C00095FFFCCF8093C600319658
:10574000F5CF609148027091490280914A02909190
:105750004B0242E00E94FBB9E6ECF4E0849188231E
:1057600041F09091C00095FFFCCF8093C600319628
:10577000F5CF2DEB37E346E05DE360910D027091CC
:105780000E0280910F02909110020E9422F242E0DC
:105790000E94FBB9E2ECF4E08491882341F09091FF
:1057A000C00095FFFCCF8093C6003196F5CF2DEB5E
:1057B00037E346E05DE360914402709145028091D9
:1057C0004602909147020E9458E942E00E94FBB9CC
:1057D000EEEBF4E08491882341F09091C00095FFB6
:1057E000FCCF8093C6003196F5CF60910002709196
:1057F0000102809102029091030242E00E94FBB9F3
:105800008091C00085FFFCCF8AE08093C6000C9495
:10581000BC3780E50E949B8C882351F00E94C18C8C
:10582000609340027093410280934202909343023E
:1058300089E40E949B8C882381F00E94C18C2DEB0F
:1058400037E346E05DE30E9458E9609309027093F4
:105850000A0280930B0290930C0284E40E949B8CBA
:10586000882381F00E94C18C2DEB37E346E05DE395
:105870000E9422F260933C0270933D0280933E02AC
:1058800090933F020E94D49CEBEBF4E08491882338
:1058900041F09091C00095FFFCCF8093C6003196F7
:1058A000F5CFE7EBF4E08491882341F09091C000BC
:1058B00095FFFCCF8093C6003196F5CF60914002F2
:1058C00070914102809142029091430242E00E9415
:1058D000FBB9E3EBF4E08491882341F09091C000A0
:1058E00095FFFCCF8093C6003196F5CF2DEB37E3C3
:1058F00046E05DE36091090270910A0280910B021B
:1059000090910C020E9422F242E00E94FBB9EFEA61
:10591000F4E08491882341F09091C00095FFFCCF82
:105920008093C6003196F5CF2DEB37E346E05DE37B
:1059300060913C0270913D0280913E0290913F0245
:105940000E9458E942E00E94FBB98091C00085FFA7
:10595000FCCF8AE08093C6000C94BC3783E50E949C
:105960009B8C882319F00E94C18C03C060E070E01A
:10597000CB0160932F027093300280933102909399
:1059800032020C94BC3785E40E949B8C882341F042
:105990000E94C18C0E9493F28B0177FF03C011C05B
:1059A00000E010E028961FAE289729961FAE299791
:1059B00046E12A964FAF2A9753E42B965FAF2B9779
:1059C0000EC028961FAE289729961FAE29978CE8FF
:1059D0002A968FAF2A9792E42B969FAF2B9783E559
:1059E0000E949B8C882371F00E94C18C28966FAF17
:1059F000289729967FAF29972A968FAF2A972B96BB
:105A00009FAF2B9783E40E949B8C882349F00E94D0
:105A1000C18C0E9493F2A7967FAF6EAFA79706C086
:105A2000A5E0B0E0A796BFAFAEAFA7970E941396D0
:105A300027966CAF7DAF8EAF9FAF279702301105D1
:105A4000B4F0EDEFF3E08491882341F09091C00031
:105A500095FFFCCF8093C6003196F5CF8091C000B2
:105A600085FFFCCF8AE08093C6000C94BC37EAEE39
:105A7000F3E08491882341F09091C00095FFFCCF22
:105A80008093C6003196F5CF8091C00085FFFCCF92
:105A90008AE08093C6000E9469968FE717FF64C072
:105AA00080931B0C27962CAD3DAD4EAD5FAD279777
:105AB00063962CAF3DAF4EAF5FAF6397AB962CAF05
:105AC0003DAF4EAF5FAFAB972C961FAE2C9730E437
:105AD00066963FAF66974CE167964FAF679756E47F
